{
  "_format": "hh-sol-artifact-1",
  "contractName": "Token",
  "sourceName": "contracts/Token.sol",
  "abi": [
    {
      "inputs": [],
      "stateMutability": "nonpayable",
      "type": "constructor"
    },
    {
      "anonymous": false,
      "inputs": [
        {
          "indexed": true,
          "internalType": "address",
          "name": "_from",
          "type": "address"
        },
        {
          "indexed": true,
          "internalType": "address",
          "name": "_to",
          "type": "address"
        },
        {
          "indexed": false,
          "internalType": "uint256",
          "name": "_value",
          "type": "uint256"
        }
      ],
      "name": "Transfer",
      "type": "event"
    },
    {
      "inputs": [
        {
          "internalType": "address",
          "name": "account",
          "type": "address"
        }
      ],
      "name": "balanceOf",
      "outputs": [
        {
          "internalType": "uint256",
          "name": "",
          "type": "uint256"
        }
      ],
      "stateMutability": "view",
      "type": "function"
    },
    {
      "inputs": [],
      "name": "currentSupply",
      "outputs": [
        {
          "internalType": "uint256",
          "name": "",
          "type": "uint256"
        }
      ],
      "stateMutability": "view",
      "type": "function"
    },
    {
      "inputs": [
        {
          "internalType": "uint256",
          "name": "ammount",
          "type": "uint256"
        }
      ],
      "name": "issueTF",
      "outputs": [],
      "stateMutability": "nonpayable",
      "type": "function"
    },
    {
      "inputs": [],
      "name": "name",
      "outputs": [
        {
          "internalType": "string",
          "name": "",
          "type": "string"
        }
      ],
      "stateMutability": "view",
      "type": "function"
    },
    {
      "inputs": [],
      "name": "owner",
      "outputs": [
        {
          "internalType": "address",
          "name": "",
          "type": "address"
        }
      ],
      "stateMutability": "view",
      "type": "function"
    },
    {
      "inputs": [],
      "name": "symbol",
      "outputs": [
        {
          "internalType": "string",
          "name": "",
          "type": "string"
        }
      ],
      "stateMutability": "view",
      "type": "function"
    },
    {
      "inputs": [
        {
          "internalType": "address",
          "name": "from",
          "type": "address"
        },
        {
          "internalType": "address",
          "name": "to",
          "type": "address"
        },
        {
          "internalType": "uint256",
          "name": "amount",
          "type": "uint256"
        }
      ],
      "name": "transfer",
      "outputs": [],
      "stateMutability": "nonpayable",
      "type": "function"
    },
    {
      "inputs": [],
      "name": "viewCurrentSupply",
      "outputs": [
        {
          "internalType": "uint256",
          "name": "",
          "type": "uint256"
        }
      ],
      "stateMutability": "view",
      "type": "function"
    }
  ],
  "bytecode": "0x60806040526040518060400160405280600d81526020017f46616e7461737920546f6b656e00000000000000000000000000000000000000815250600090816200004a9190620003b5565b506040518060400160405280600281526020017f544600000000000000000000000000000000000000000000000000000000000081525060019081620000919190620003b5565b50620f424060025562989680600355348015620000ad57600080fd5b50600254600560003373ffffffffffffffffffffffffffffffffffffffff1673ffffffffffffffffffffffffffffffffffffffff1681526020019081526020016000208190555033600460006101000a81548173ffffffffffffffffffffffffffffffffffffffff021916908373ffffffffffffffffffffffffffffffffffffffff1602179055506200049c565b600081519050919050565b7f4e487b7100000000000000000000000000000000000000000000000000000000600052604160045260246000fd5b7f4e487b7100000000000000000000000000000000000000000000000000000000600052602260045260246000fd5b60006002820490506001821680620001bd57607f821691505b602082108103620001d357620001d262000175565b5b50919050565b60008190508160005260206000209050919050565b60006020601f8301049050919050565b600082821b905092915050565b6000600883026200023d7fffffffffffffffffffffffffffffffffffffffffffffffffffffffffffffffff82620001fe565b620002498683620001fe565b95508019841693508086168417925050509392505050565b6000819050919050565b6000819050919050565b600062000296620002906200028a8462000261565b6200026b565b62000261565b9050919050565b6000819050919050565b620002b28362000275565b620002ca620002c1826200029d565b8484546200020b565b825550505050565b600090565b620002e1620002d2565b620002ee818484620002a7565b505050565b5b8181101562000316576200030a600082620002d7565b600181019050620002f4565b5050565b601f82111562000365576200032f81620001d9565b6200033a84620001ee565b810160208510156200034a578190505b620003626200035985620001ee565b830182620002f3565b50505b505050565b600082821c905092915050565b60006200038a600019846008026200036a565b1980831691505092915050565b6000620003a5838362000377565b9150826002028217905092915050565b620003c0826200013b565b67ffffffffffffffff811115620003dc57620003db62000146565b5b620003e88254620001a4565b620003f58282856200031a565b600060209050601f8311600181146200042d576000841562000418578287015190505b62000424858262000397565b86555062000494565b601f1984166200043d86620001d9565b60005b82811015620004675784890151825560018201915060208501945060208101905062000440565b8683101562000487578489015162000483601f89168262000377565b8355505b6001600288020188555050505b505050505050565b610b6380620004ac6000396000f3fe608060405234801561001057600080fd5b50600436106100885760003560e01c8063771282f61161005b578063771282f6146101155780638da5cb5b1461013357806395d89b4114610151578063beabacc81461016f57610088565b806306fdde031461008d578063255806b3146100ab5780632a4538cf146100c757806370a08231146100e5575b600080fd5b61009561018b565b6040516100a291906106c4565b60405180910390f35b6100c560048036038101906100c09190610721565b610219565b005b6100cf6102ff565b6040516100dc919061075d565b60405180910390f35b6100ff60048036038101906100fa91906107d6565b610309565b60405161010c919061075d565b60405180910390f35b61011d610352565b60405161012a919061075d565b60405180910390f35b61013b610358565b6040516101489190610812565b60405180910390f35b61015961037e565b60405161016691906106c4565b60405180910390f35b6101896004803603810190610184919061082d565b61040c565b005b60008054610198906108af565b80601f01602080910402602001604051908101604052809291908181526020018280546101c4906108af565b80156102115780601f106101e657610100808354040283529160200191610211565b820191906000526020600020905b8154815290600101906020018083116101f457829003601f168201915b505050505081565b6003548160025461022a919061090f565b111561026b576040517f08c379a0000000000000000000000000000000000000000000000000000000008152600401610262906109db565b60405180910390fd5b806002600082825461027d919061090f565b925050819055508060056000600460009054906101000a900473ffffffffffffffffffffffffffffffffffffffff1673ffffffffffffffffffffffffffffffffffffffff1673ffffffffffffffffffffffffffffffffffffffff16815260200190815260200160002060008282546102f5919061090f565b9250508190555050565b6000600254905090565b6000600560008373ffffffffffffffffffffffffffffffffffffffff1673ffffffffffffffffffffffffffffffffffffffff168152602001908152602001600020549050919050565b60025481565b600460009054906101000a900473ffffffffffffffffffffffffffffffffffffffff1681565b6001805461038b906108af565b80601f01602080910402602001604051908101604052809291908181526020018280546103b7906108af565b80156104045780601f106103d957610100808354040283529160200191610404565b820191906000526020600020905b8154815290600101906020018083116103e757829003601f168201915b505050505081565b80600560008573ffffffffffffffffffffffffffffffffffffffff1673ffffffffffffffffffffffffffffffffffffffff16815260200190815260200160002054101561048e576040517f08c379a000000000000000000000000000000000000000000000000000000000815260040161048590610a47565b60405180910390fd5b600460009054906101000a900473ffffffffffffffffffffffffffffffffffffffff1673ffffffffffffffffffffffffffffffffffffffff163373ffffffffffffffffffffffffffffffffffffffff161461051e576040517f08c379a000000000000000000000000000000000000000000000000000000000815260040161051590610ad9565b60405180910390fd5b80600560008573ffffffffffffffffffffffffffffffffffffffff1673ffffffffffffffffffffffffffffffffffffffff168152602001908152602001600020600082825461056d9190610af9565b9250508190555080600560008473ffffffffffffffffffffffffffffffffffffffff1673ffffffffffffffffffffffffffffffffffffffff16815260200190815260200160002060008282546105c3919061090f565b925050819055508173ffffffffffffffffffffffffffffffffffffffff168373ffffffffffffffffffffffffffffffffffffffff167fddf252ad1be2c89b69c2b068fc378daa952ba7f163c4a11628f55a4df523b3ef83604051610627919061075d565b60405180910390a3505050565b600081519050919050565b600082825260208201905092915050565b60005b8381101561066e578082015181840152602081019050610653565b60008484015250505050565b6000601f19601f8301169050919050565b600061069682610634565b6106a0818561063f565b93506106b0818560208601610650565b6106b98161067a565b840191505092915050565b600060208201905081810360008301526106de818461068b565b905092915050565b600080fd5b6000819050919050565b6106fe816106eb565b811461070957600080fd5b50565b60008135905061071b816106f5565b92915050565b600060208284031215610737576107366106e6565b5b60006107458482850161070c565b91505092915050565b610757816106eb565b82525050565b6000602082019050610772600083018461074e565b92915050565b600073ffffffffffffffffffffffffffffffffffffffff82169050919050565b60006107a382610778565b9050919050565b6107b381610798565b81146107be57600080fd5b50565b6000813590506107d0816107aa565b92915050565b6000602082840312156107ec576107eb6106e6565b5b60006107fa848285016107c1565b91505092915050565b61080c81610798565b82525050565b60006020820190506108276000830184610803565b92915050565b600080600060608486031215610846576108456106e6565b5b6000610854868287016107c1565b9350506020610865868287016107c1565b92505060406108768682870161070c565b9150509250925092565b7f4e487b7100000000000000000000000000000000000000000000000000000000600052602260045260246000fd5b600060028204905060018216806108c757607f821691505b6020821081036108da576108d9610880565b5b50919050565b7f4e487b7100000000000000000000000000000000000000000000000000000000600052601160045260246000fd5b600061091a826106eb565b9150610925836106eb565b925082820190508082111561093d5761093c6108e0565b5b92915050565b7f43616e206e6f7420697373756520726571756972656420616d6d6f756e74206f60008201527f662054467320617320746865792073757270617373206d6178696d756d20737560208201527f70706c7900000000000000000000000000000000000000000000000000000000604082015250565b60006109c560448361063f565b91506109d082610943565b606082019050919050565b600060208201905081810360008301526109f4816109b8565b9050919050565b7f4e6f7420656e6f75676820746f6b656e73000000000000000000000000000000600082015250565b6000610a3160118361063f565b9150610a3c826109fb565b602082019050919050565b60006020820190508181036000830152610a6081610a24565b9050919050565b7f596f7520646f6e2774206861766520746865207265717569726564207072697660008201527f696c6567657320746f206d616b652074686973207472616e73616374696f6e00602082015250565b6000610ac3603f8361063f565b9150610ace82610a67565b604082019050919050565b60006020820190508181036000830152610af281610ab6565b9050919050565b6000610b04826106eb565b9150610b0f836106eb565b9250828203905081811115610b2757610b266108e0565b5b9291505056fea2646970667358221220edd43bb1f20b7518b8e9d3522fc0572c98a30c109e5e07719b0965852b2f2d8064736f6c63430008110033",
  "linkReferences": {},
  "deployedLinkReferences": {}
}